{
  "contractName": "MarketPlace",
  "abi": [
    {
      "constant": true,
      "inputs": [
        {
          "name": "",
          "type": "address"
        }
      ],
      "name": "storeOwners",
      "outputs": [
        {
          "name": "",
          "type": "bool"
        }
      ],
      "payable": false,
      "stateMutability": "view",
      "type": "function",
      "signature": "0x057cc2a1"
    },
    {
      "constant": true,
      "inputs": [
        {
          "name": "",
          "type": "address"
        }
      ],
      "name": "product",
      "outputs": [
        {
          "name": "name",
          "type": "string"
        },
        {
          "name": "price",
          "type": "uint256"
        },
        {
          "name": "availability",
          "type": "uint256"
        }
      ],
      "payable": false,
      "stateMutability": "view",
      "type": "function",
      "signature": "0x17f7dad8"
    },
    {
      "constant": true,
      "inputs": [
        {
          "name": "",
          "type": "address"
        }
      ],
      "name": "admins",
      "outputs": [
        {
          "name": "",
          "type": "bool"
        }
      ],
      "payable": false,
      "stateMutability": "view",
      "type": "function",
      "signature": "0x429b62e5"
    },
    {
      "constant": true,
      "inputs": [],
      "name": "stopped",
      "outputs": [
        {
          "name": "",
          "type": "bool"
        }
      ],
      "payable": false,
      "stateMutability": "view",
      "type": "function",
      "signature": "0x75f12b21"
    },
    {
      "constant": true,
      "inputs": [
        {
          "name": "",
          "type": "address"
        }
      ],
      "name": "store",
      "outputs": [
        {
          "name": "name",
          "type": "string"
        },
        {
          "name": "funds",
          "type": "uint256"
        }
      ],
      "payable": false,
      "stateMutability": "view",
      "type": "function",
      "signature": "0x9e39db73"
    },
    {
      "constant": true,
      "inputs": [
        {
          "name": "",
          "type": "address"
        }
      ],
      "name": "userType",
      "outputs": [
        {
          "name": "",
          "type": "uint256"
        }
      ],
      "payable": false,
      "stateMutability": "view",
      "type": "function",
      "signature": "0xb83458b0"
    },
    {
      "inputs": [],
      "payable": false,
      "stateMutability": "nonpayable",
      "type": "constructor",
      "signature": "constructor"
    },
    {
      "anonymous": false,
      "inputs": [
        {
          "indexed": false,
          "name": "_address",
          "type": "address"
        }
      ],
      "name": "AdminAdded",
      "type": "event",
      "signature": "0x44d6d25963f097ad14f29f06854a01f575648a1ef82f30e562ccd3889717e339"
    },
    {
      "anonymous": false,
      "inputs": [
        {
          "indexed": false,
          "name": "_address",
          "type": "address"
        }
      ],
      "name": "StoreOwnerAdded",
      "type": "event",
      "signature": "0xe095b54135d91dfdb849d8f2a1232ed69da67f78cfd33a34a834084d8d037e9a"
    },
    {
      "anonymous": false,
      "inputs": [
        {
          "indexed": false,
          "name": "_address",
          "type": "address"
        }
      ],
      "name": "StoreAdded",
      "type": "event",
      "signature": "0xd7143132cef62efb14dc187d256287bbc7e0f7ffeecf974b2ffede151ffb467c"
    },
    {
      "anonymous": false,
      "inputs": [
        {
          "indexed": false,
          "name": "_address",
          "type": "address"
        }
      ],
      "name": "ProductAdded",
      "type": "event",
      "signature": "0xb47bc51361412ccd13c03ce02cb7481334b4302ac26726397e82e12710c8a3a2"
    },
    {
      "anonymous": false,
      "inputs": [
        {
          "indexed": false,
          "name": "_address",
          "type": "address"
        }
      ],
      "name": "ProductRemoved",
      "type": "event",
      "signature": "0xbcfcd682fb30ef99771fd0e6a263238ad5336a768db67bb9d3387807c02e43e5"
    },
    {
      "anonymous": false,
      "inputs": [
        {
          "indexed": false,
          "name": "_address",
          "type": "address"
        },
        {
          "indexed": false,
          "name": "_price",
          "type": "uint256"
        }
      ],
      "name": "PriceChanged",
      "type": "event",
      "signature": "0x8f012475d3b98d9007b927bfddd4f78c3e0465e69ec5d9795a19dbc3a04e0a68"
    },
    {
      "anonymous": false,
      "inputs": [
        {
          "indexed": false,
          "name": "_address",
          "type": "address"
        },
        {
          "indexed": false,
          "name": "_amount",
          "type": "uint256"
        }
      ],
      "name": "AmountWithdrawn",
      "type": "event",
      "signature": "0x058b581e2433b8b02263f5b0e5c2889fcb7b3495112884a3147619038fba46d8"
    },
    {
      "anonymous": false,
      "inputs": [
        {
          "indexed": false,
          "name": "_address",
          "type": "address"
        },
        {
          "indexed": false,
          "name": "_price",
          "type": "uint256"
        },
        {
          "indexed": false,
          "name": "_amount",
          "type": "uint256"
        }
      ],
      "name": "ProductPurchased",
      "type": "event",
      "signature": "0x228a5d93a19503d5154326b1b21603e2cdd97bda22fc58196235b4490659fc01"
    },
    {
      "constant": true,
      "inputs": [
        {
          "name": "_address",
          "type": "address"
        }
      ],
      "name": "isAdmin",
      "outputs": [
        {
          "name": "result",
          "type": "bool"
        }
      ],
      "payable": false,
      "stateMutability": "view",
      "type": "function",
      "signature": "0x24d7806c"
    },
    {
      "constant": true,
      "inputs": [
        {
          "name": "_address",
          "type": "address"
        }
      ],
      "name": "isStoreOwner",
      "outputs": [
        {
          "name": "result",
          "type": "bool"
        }
      ],
      "payable": false,
      "stateMutability": "view",
      "type": "function",
      "signature": "0x5effd33c"
    },
    {
      "constant": false,
      "inputs": [
        {
          "name": "_address",
          "type": "address"
        }
      ],
      "name": "identifyUser",
      "outputs": [
        {
          "name": "",
          "type": "uint256"
        }
      ],
      "payable": false,
      "stateMutability": "nonpayable",
      "type": "function",
      "signature": "0xa16b41c6"
    },
    {
      "constant": false,
      "inputs": [],
      "name": "identifyUser",
      "outputs": [
        {
          "name": "",
          "type": "uint256"
        }
      ],
      "payable": false,
      "stateMutability": "nonpayable",
      "type": "function",
      "signature": "0x830dfaf8"
    },
    {
      "constant": true,
      "inputs": [],
      "name": "getStopped",
      "outputs": [
        {
          "name": "result",
          "type": "bool"
        }
      ],
      "payable": false,
      "stateMutability": "view",
      "type": "function",
      "signature": "0x197419d5"
    },
    {
      "constant": false,
      "inputs": [
        {
          "name": "_address",
          "type": "address"
        }
      ],
      "name": "addAdmin",
      "outputs": [
        {
          "name": "admin",
          "type": "bool"
        }
      ],
      "payable": false,
      "stateMutability": "nonpayable",
      "type": "function",
      "signature": "0x70480275"
    },
    {
      "constant": false,
      "inputs": [
        {
          "name": "_address",
          "type": "address"
        }
      ],
      "name": "addStoreOwner",
      "outputs": [
        {
          "name": "admin",
          "type": "bool"
        }
      ],
      "payable": false,
      "stateMutability": "nonpayable",
      "type": "function",
      "signature": "0x9adeb5f1"
    },
    {
      "constant": false,
      "inputs": [],
      "name": "toggleContractActive",
      "outputs": [
        {
          "name": "result",
          "type": "bool"
        }
      ],
      "payable": false,
      "stateMutability": "nonpayable",
      "type": "function",
      "signature": "0x1385d24c"
    },
    {
      "constant": false,
      "inputs": [
        {
          "name": "_name",
          "type": "string"
        }
      ],
      "name": "addStore",
      "outputs": [
        {
          "name": "name",
          "type": "string"
        }
      ],
      "payable": true,
      "stateMutability": "payable",
      "type": "function",
      "signature": "0x662feffc"
    },
    {
      "constant": false,
      "inputs": [
        {
          "name": "_productName",
          "type": "string"
        },
        {
          "name": "_price",
          "type": "uint256"
        },
        {
          "name": "_availability",
          "type": "uint256"
        }
      ],
      "name": "addProduct",
      "outputs": [
        {
          "name": "name",
          "type": "string"
        },
        {
          "name": "price",
          "type": "uint256"
        },
        {
          "name": "availabilty",
          "type": "uint256"
        }
      ],
      "payable": false,
      "stateMutability": "nonpayable",
      "type": "function",
      "signature": "0x125b0b34"
    },
    {
      "constant": false,
      "inputs": [],
      "name": "removeProduct",
      "outputs": [],
      "payable": false,
      "stateMutability": "nonpayable",
      "type": "function",
      "signature": "0x0177b556"
    },
    {
      "constant": false,
      "inputs": [
        {
          "name": "_newPrice",
          "type": "uint256"
        }
      ],
      "name": "changeProductPrice",
      "outputs": [
        {
          "name": "newPrice",
          "type": "uint256"
        }
      ],
      "payable": false,
      "stateMutability": "nonpayable",
      "type": "function",
      "signature": "0xe27a2dff"
    },
    {
      "constant": false,
      "inputs": [
        {
          "name": "amount",
          "type": "uint256"
        }
      ],
      "name": "withdraw",
      "outputs": [
        {
          "name": "funds",
          "type": "uint256"
        }
      ],
      "payable": false,
      "stateMutability": "nonpayable",
      "type": "function",
      "signature": "0x2e1a7d4d"
    },
    {
      "constant": false,
      "inputs": [
        {
          "name": "_ownerAddress",
          "type": "address"
        },
        {
          "name": "_amount",
          "type": "uint256"
        }
      ],
      "name": "purchaseProduct",
      "outputs": [
        {
          "name": "caller",
          "type": "address"
        },
        {
          "name": "name",
          "type": "string"
        },
        {
          "name": "amount",
          "type": "uint256"
        }
      ],
      "payable": true,
      "stateMutability": "payable",
      "type": "function",
      "signature": "0xa884871e"
    }
  ],
  "bytecode": "0x60806040526000600560006101000a81548160ff0219169083151502179055503480156200002c57600080fd5b5060016000803373ffffffffffffffffffffffffffffffffffffffff1673ffffffffffffffffffffffffffffffffffffffff16815260200190815260200160002060006101000a81548160ff0219169083151502179055506200009e33620000a5640100000000026401000000009004565b50620002d8565b6000620000c1826200022d640100000000026401000000009004565b1562000112576001600460008473ffffffffffffffffffffffffffffffffffffffff1673ffffffffffffffffffffffffffffffffffffffff16815260200190815260200160002081905550620001e6565b6200012c8262000282640100000000026401000000009004565b806200014e57506200014d826200022d640100000000026401000000009004565b5b156200019f576002600460008473ffffffffffffffffffffffffffffffffffffffff1673ffffffffffffffffffffffffffffffffffffffff16815260200190815260200160002081905550620001e5565b6003600460008473ffffffffffffffffffffffffffffffffffffffff1673ffffffffffffffffffffffffffffffffffffffff168152602001908152602001600020819055505b5b600460008373ffffffffffffffffffffffffffffffffffffffff1673ffffffffffffffffffffffffffffffffffffffff168152602001908152602001600020549050919050565b60008060008373ffffffffffffffffffffffffffffffffffffffff1673ffffffffffffffffffffffffffffffffffffffff16815260200190815260200160002060009054906101000a900460ff169050919050565b6000600160008373ffffffffffffffffffffffffffffffffffffffff1673ffffffffffffffffffffffffffffffffffffffff16815260200190815260200160002060009054906101000a900460ff169050919050565b61225780620002e86000396000f3fe608060405260043610610112576000357c0100000000000000000000000000000000000000000000000000000000900463ffffffff1680630177b55614610117578063057cc2a11461012e578063125b0b34146101975780631385d24c146102fa57806317f7dad814610329578063197419d51461040157806324d7806c146104305780632e1a7d4d14610499578063429b62e5146104e85780635effd33c14610551578063662feffc146105ba57806370480275146106ee57806375f12b2114610757578063830dfaf8146107865780639adeb5f1146107b15780639e39db731461081a578063a16b41c6146108eb578063a884871e14610950578063b83458b014610a51578063e27a2dff14610ab6575b600080fd5b34801561012357600080fd5b5061012c610b05565b005b34801561013a57600080fd5b5061017d6004803603602081101561015157600080fd5b81019080803573ffffffffffffffffffffffffffffffffffffffff169060200190929190505050610c2b565b604051808215151515815260200191505060405180910390f35b3480156101a357600080fd5b50610271600480360360608110156101ba57600080fd5b81019080803590602001906401000000008111156101d757600080fd5b8201836020820111156101e957600080fd5b8035906020019184600183028401116401000000008311171561020b57600080fd5b91908080601f016020809104026020016040519081016040528093929190818152602001838380828437600081840152601f19601f8201169050808301925050505050505091929192908035906020019092919080359060200190929190505050610c4b565b6040518080602001848152602001838152602001828103825285818151815260200191508051906020019080838360005b838110156102bd5780820151818401526020810190506102a2565b50505050905090810190601f1680156102ea5780820380516001836020036101000a031916815260200191505b5094505050505060405180910390f35b34801561030657600080fd5b5061030f610f14565b604051808215151515815260200191505060405180910390f35b34801561033557600080fd5b506103786004803603602081101561034c57600080fd5b81019080803573ffffffffffffffffffffffffffffffffffffffff169060200190929190505050610fb3565b6040518080602001848152602001838152602001828103825285818151815260200191508051906020019080838360005b838110156103c45780820151818401526020810190506103a9565b50505050905090810190601f1680156103f15780820380516001836020036101000a031916815260200191505b5094505050505060405180910390f35b34801561040d57600080fd5b50610416611075565b604051808215151515815260200191505060405180910390f35b34801561043c57600080fd5b5061047f6004803603602081101561045357600080fd5b81019080803573ffffffffffffffffffffffffffffffffffffffff16906020019092919050505061108c565b604051808215151515815260200191505060405180910390f35b3480156104a557600080fd5b506104d2600480360360208110156104bc57600080fd5b81019080803590602001909291905050506110e1565b6040518082815260200191505060405180910390f35b3480156104f457600080fd5b506105376004803603602081101561050b57600080fd5b81019080803573ffffffffffffffffffffffffffffffffffffffff169060200190929190505050611337565b604051808215151515815260200191505060405180910390f35b34801561055d57600080fd5b506105a06004803603602081101561057457600080fd5b81019080803573ffffffffffffffffffffffffffffffffffffffff169060200190929190505050611357565b604051808215151515815260200191505060405180910390f35b610673600480360360208110156105d057600080fd5b81019080803590602001906401000000008111156105ed57600080fd5b8201836020820111156105ff57600080fd5b8035906020019184600183028401116401000000008311171561062157600080fd5b91908080601f016020809104026020016040519081016040528093929190818152602001838380828437600081840152601f19601f8201169050808301925050505050505091929192905050506113ad565b6040518080602001828103825283818151815260200191508051906020019080838360005b838110156106b3578082015181840152602081019050610698565b50505050905090810190601f1680156106e05780820380516001836020036101000a031916815260200191505b509250505060405180910390f35b3480156106fa57600080fd5b5061073d6004803603602081101561071157600080fd5b81019080803573ffffffffffffffffffffffffffffffffffffffff1690602001909291905050506115d1565b604051808215151515815260200191505060405180910390f35b34801561076357600080fd5b5061076c61173e565b604051808215151515815260200191505060405180910390f35b34801561079257600080fd5b5061079b611751565b6040518082815260200191505060405180910390f35b3480156107bd57600080fd5b50610800600480360360208110156107d457600080fd5b81019080803573ffffffffffffffffffffffffffffffffffffffff16906020019092919050505061188f565b604051808215151515815260200191505060405180910390f35b34801561082657600080fd5b506108696004803603602081101561083d57600080fd5b81019080803573ffffffffffffffffffffffffffffffffffffffff1690602001909291905050506119fd565b6040518080602001838152602001828103825284818151815260200191508051906020019080838360005b838110156108af578082015181840152602081019050610894565b50505050905090810190601f1680156108dc5780820380516001836020036101000a031916815260200191505b50935050505060405180910390f35b3480156108f757600080fd5b5061093a6004803603602081101561090e57600080fd5b81019080803573ffffffffffffffffffffffffffffffffffffffff169060200190929190505050611ab9565b6040518082815260200191505060405180910390f35b61099c6004803603604081101561096657600080fd5b81019080803573ffffffffffffffffffffffffffffffffffffffff16906020019092919080359060200190929190505050611c09565b604051808473ffffffffffffffffffffffffffffffffffffffff1673ffffffffffffffffffffffffffffffffffffffff16815260200180602001838152602001828103825284818151815260200191508051906020019080838360005b83811015610a145780820151818401526020810190506109f9565b50505050905090810190601f168015610a415780820380516001836020036101000a031916815260200191505b5094505050505060405180910390f35b348015610a5d57600080fd5b50610aa060048036036020811015610a7457600080fd5b81019080803573ffffffffffffffffffffffffffffffffffffffff169060200190929190505050611fc9565b6040518082815260200191505060405180910390f35b348015610ac257600080fd5b50610aef60048036036020811015610ad957600080fd5b8101908080359060200190929190505050611fe1565b6040518082815260200191505060405180910390f35b60011515600160003373ffffffffffffffffffffffffffffffffffffffff1673ffffffffffffffffffffffffffffffffffffffff16815260200190815260200160002060009054906101000a900460ff161515141515610b6457600080fd5b600360003373ffffffffffffffffffffffffffffffffffffffff1673ffffffffffffffffffffffffffffffffffffffff16815260200190815260200160002060008082016000610bb4919061213e565b6001820160009055600282016000905550507fbcfcd682fb30ef99771fd0e6a263238ad5336a768db67bb9d3387807c02e43e533604051808273ffffffffffffffffffffffffffffffffffffffff1673ffffffffffffffffffffffffffffffffffffffff16815260200191505060405180910390a1565b60016020528060005260406000206000915054906101000a900460ff1681565b606060008060011515600160003373ffffffffffffffffffffffffffffffffffffffff1673ffffffffffffffffffffffffffffffffffffffff16815260200190815260200160002060009054906101000a900460ff161515141515610caf57600080fd5b60606040519081016040528087815260200186815260200185815250600360003373ffffffffffffffffffffffffffffffffffffffff1673ffffffffffffffffffffffffffffffffffffffff1681526020019081526020016000206000820151816000019080519060200190610d26929190612186565b5060208201518160010155604082015181600201559050507fb47bc51361412ccd13c03ce02cb7481334b4302ac26726397e82e12710c8a3a233604051808273ffffffffffffffffffffffffffffffffffffffff1673ffffffffffffffffffffffffffffffffffffffff16815260200191505060405180910390a1600360003373ffffffffffffffffffffffffffffffffffffffff1673ffffffffffffffffffffffffffffffffffffffff168152602001908152602001600020600001600360003373ffffffffffffffffffffffffffffffffffffffff1673ffffffffffffffffffffffffffffffffffffffff16815260200190815260200160002060010154600360003373ffffffffffffffffffffffffffffffffffffffff1673ffffffffffffffffffffffffffffffffffffffff16815260200190815260200160002060020154828054600181600116156101000203166002900480601f016020809104026020016040519081016040528092919081815260200182805460018160011615610100020316600290048015610efe5780601f10610ed357610100808354040283529160200191610efe565b820191906000526020600020905b815481529060010190602001808311610ee157829003601f168201915b5050505050925092509250925093509350939050565b6000600115156000803373ffffffffffffffffffffffffffffffffffffffff1673ffffffffffffffffffffffffffffffffffffffff16815260200190815260200160002060009054906101000a900460ff161515141515610f7457600080fd5b600560009054906101000a900460ff1615600560006101000a81548160ff021916908315150217905550600560009054906101000a900460ff16905090565b6003602052806000526040600020600091509050806000018054600181600116156101000203166002900480601f01602080910402602001604051908101604052809291908181526020018280546001816001161561010002031660029004801561105f5780601f106110345761010080835404028352916020019161105f565b820191906000526020600020905b81548152906001019060200180831161104257829003601f168201915b5050505050908060010154908060020154905083565b6000600560009054906101000a900460ff16905090565b60008060008373ffffffffffffffffffffffffffffffffffffffff1673ffffffffffffffffffffffffffffffffffffffff16815260200190815260200160002060009054906101000a900460ff169050919050565b600060011515600160003373ffffffffffffffffffffffffffffffffffffffff1673ffffffffffffffffffffffffffffffffffffffff16815260200190815260200160002060009054906101000a900460ff16151514151561114257600080fd5b600560009054906101000a900460ff16156113325781600260003373ffffffffffffffffffffffffffffffffffffffff1673ffffffffffffffffffffffffffffffffffffffff168152602001908152602001600020600101600082825403925050819055503373ffffffffffffffffffffffffffffffffffffffff166108fc600260003373ffffffffffffffffffffffffffffffffffffffff1673ffffffffffffffffffffffffffffffffffffffff168152602001908152602001600020600101549081150290604051600060405180830381858888f1935050505015801561122f573d6000803e3d6000fd5b50600260003373ffffffffffffffffffffffffffffffffffffffff1673ffffffffffffffffffffffffffffffffffffffff16815260200190815260200160002060010154821115151561128157600080fd5b7f058b581e2433b8b02263f5b0e5c2889fcb7b3495112884a3147619038fba46d83383604051808373ffffffffffffffffffffffffffffffffffffffff1673ffffffffffffffffffffffffffffffffffffffff1681526020018281526020019250505060405180910390a1600260003373ffffffffffffffffffffffffffffffffffffffff1673ffffffffffffffffffffffffffffffffffffffff1681526020019081526020016000206001015490505b919050565b60006020528060005260406000206000915054906101000a900460ff1681565b6000600160008373ffffffffffffffffffffffffffffffffffffffff1673ffffffffffffffffffffffffffffffffffffffff16815260200190815260200160002060009054906101000a900460ff169050919050565b606060011515600160003373ffffffffffffffffffffffffffffffffffffffff1673ffffffffffffffffffffffffffffffffffffffff16815260200190815260200160002060009054906101000a900460ff16151514151561140e57600080fd5b604080519081016040528083815260200134815250600260003373ffffffffffffffffffffffffffffffffffffffff1673ffffffffffffffffffffffffffffffffffffffff168152602001908152602001600020600082015181600001908051906020019061147e929190612186565b50602082015181600101559050507fd7143132cef62efb14dc187d256287bbc7e0f7ffeecf974b2ffede151ffb467c33604051808273ffffffffffffffffffffffffffffffffffffffff1673ffffffffffffffffffffffffffffffffffffffff16815260200191505060405180910390a1600260003373ffffffffffffffffffffffffffffffffffffffff1673ffffffffffffffffffffffffffffffffffffffff1681526020019081526020016000206000018054600181600116156101000203166002900480601f0160208091040260200160405190810160405280929190818152602001828054600181600116156101000203166002900480156115c55780601f1061159a576101008083540402835291602001916115c5565b820191906000526020600020905b8154815290600101906020018083116115a857829003601f168201915b50505050509050919050565b6000600115156000803373ffffffffffffffffffffffffffffffffffffffff1673ffffffffffffffffffffffffffffffffffffffff16815260200190815260200160002060009054906101000a900460ff16151514151561163157600080fd5b60016000808473ffffffffffffffffffffffffffffffffffffffff1673ffffffffffffffffffffffffffffffffffffffff16815260200190815260200160002060006101000a81548160ff0219169083151502179055507f44d6d25963f097ad14f29f06854a01f575648a1ef82f30e562ccd3889717e33982604051808273ffffffffffffffffffffffffffffffffffffffff1673ffffffffffffffffffffffffffffffffffffffff16815260200191505060405180910390a16000808373ffffffffffffffffffffffffffffffffffffffff1673ffffffffffffffffffffffffffffffffffffffff16815260200190815260200160002060009054906101000a900460ff169050919050565b600560009054906101000a900460ff1681565b600061175c3361108c565b156117ab576001600460003373ffffffffffffffffffffffffffffffffffffffff1673ffffffffffffffffffffffffffffffffffffffff1681526020019081526020016000208190555061184a565b6117b433611357565b15611803576002600460003373ffffffffffffffffffffffffffffffffffffffff1673ffffffffffffffffffffffffffffffffffffffff16815260200190815260200160002081905550611849565b6003600460003373ffffffffffffffffffffffffffffffffffffffff1673ffffffffffffffffffffffffffffffffffffffff168152602001908152602001600020819055505b5b600460003373ffffffffffffffffffffffffffffffffffffffff1673ffffffffffffffffffffffffffffffffffffffff16815260200190815260200160002054905090565b6000600115156000803373ffffffffffffffffffffffffffffffffffffffff1673ffffffffffffffffffffffffffffffffffffffff16815260200190815260200160002060009054906101000a900460ff1615151415156118ef57600080fd5b60018060008473ffffffffffffffffffffffffffffffffffffffff1673ffffffffffffffffffffffffffffffffffffffff16815260200190815260200160002060006101000a81548160ff0219169083151502179055507fe095b54135d91dfdb849d8f2a1232ed69da67f78cfd33a34a834084d8d037e9a82604051808273ffffffffffffffffffffffffffffffffffffffff1673ffffffffffffffffffffffffffffffffffffffff16815260200191505060405180910390a1600160008373ffffffffffffffffffffffffffffffffffffffff1673ffffffffffffffffffffffffffffffffffffffff16815260200190815260200160002060009054906101000a900460ff169050919050565b6002602052806000526040600020600091509050806000018054600181600116156101000203166002900480601f016020809104026020016040519081016040528092919081815260200182805460018160011615610100020316600290048015611aa95780601f10611a7e57610100808354040283529160200191611aa9565b820191906000526020600020905b815481529060010190602001808311611a8c57829003601f168201915b5050505050908060010154905082565b6000611ac48261108c565b15611b13576001600460008473ffffffffffffffffffffffffffffffffffffffff1673ffffffffffffffffffffffffffffffffffffffff16815260200190815260200160002081905550611bc2565b611b1c82611357565b80611b2c5750611b2b8261108c565b5b15611b7b576002600460008473ffffffffffffffffffffffffffffffffffffffff1673ffffffffffffffffffffffffffffffffffffffff16815260200190815260200160002081905550611bc1565b6003600460008473ffffffffffffffffffffffffffffffffffffffff1673ffffffffffffffffffffffffffffffffffffffff168152602001908152602001600020819055505b5b600460008373ffffffffffffffffffffffffffffffffffffffff1673ffffffffffffffffffffffffffffffffffffffff168152602001908152602001600020549050919050565b60006060600083600360008773ffffffffffffffffffffffffffffffffffffffff1673ffffffffffffffffffffffffffffffffffffffff1681526020019081526020016000206001015402600260008773ffffffffffffffffffffffffffffffffffffffff1673ffffffffffffffffffffffffffffffffffffffff168152602001908152602001600020600101600082825401925050819055503373ffffffffffffffffffffffffffffffffffffffff166108fc85600360008973ffffffffffffffffffffffffffffffffffffffff1673ffffffffffffffffffffffffffffffffffffffff16815260200190815260200160002060010154029081150290604051600060405180830381858888f19350505050158015611d2d573d6000803e3d6000fd5b5083600360008773ffffffffffffffffffffffffffffffffffffffff1673ffffffffffffffffffffffffffffffffffffffff1681526020019081526020016000206002016000828254039250508190555083600360008773ffffffffffffffffffffffffffffffffffffffff1673ffffffffffffffffffffffffffffffffffffffff16815260200190815260200160002060010154023410151515611dd157600080fd5b83600360008773ffffffffffffffffffffffffffffffffffffffff1673ffffffffffffffffffffffffffffffffffffffff1681526020019081526020016000206002015410151515611e2257600080fd5b7f228a5d93a19503d5154326b1b21603e2cdd97bda22fc58196235b4490659fc018585600360008973ffffffffffffffffffffffffffffffffffffffff1673ffffffffffffffffffffffffffffffffffffffff168152602001908152602001600020600101540286604051808473ffffffffffffffffffffffffffffffffffffffff1673ffffffffffffffffffffffffffffffffffffffff168152602001838152602001828152602001935050505060405180910390a133600360008773ffffffffffffffffffffffffffffffffffffffff1673ffffffffffffffffffffffffffffffffffffffff16815260200190815260200160002060000185829250818054600181600116156101000203166002900480601f016020809104026020016040519081016040528092919081815260200182805460018160011615610100020316600290048015611fb55780601f10611f8a57610100808354040283529160200191611fb5565b820191906000526020600020905b815481529060010190602001808311611f9857829003601f168201915b505050505091509250925092509250925092565b60046020528060005260406000206000915090505481565b600060011515600160003373ffffffffffffffffffffffffffffffffffffffff1673ffffffffffffffffffffffffffffffffffffffff16815260200190815260200160002060009054906101000a900460ff16151514151561204257600080fd5b81600360003373ffffffffffffffffffffffffffffffffffffffff1673ffffffffffffffffffffffffffffffffffffffff168152602001908152602001600020600101819055507f8f012475d3b98d9007b927bfddd4f78c3e0465e69ec5d9795a19dbc3a04e0a683383604051808373ffffffffffffffffffffffffffffffffffffffff1673ffffffffffffffffffffffffffffffffffffffff1681526020018281526020019250505060405180910390a1600360003373ffffffffffffffffffffffffffffffffffffffff1673ffffffffffffffffffffffffffffffffffffffff168152602001908152602001600020600101549050919050565b50805460018160011615610100020316600290046000825580601f106121645750612183565b601f0160209004906000526020600020908101906121829190612206565b5b50565b828054600181600116156101000203166002900490600052602060002090601f016020900481019282601f106121c757805160ff19168380011785556121f5565b828001600101855582156121f5579182015b828111156121f45782518255916020019190600101906121d9565b5b5090506122029190612206565b5090565b61222891905b8082111561222457600081600090555060010161220c565b5090565b9056fea165627a7a723058207863b7ae8804fa9d49b960d03dbeccdcb4f615531e6a8ea181bdd4869d9f89d50029",
  "source": "pragma solidity ^0.5.0;\n\nimport \"./SafeMathLib.sol\";\n\ncontract MarketPlace {\n  using SafeMathLib for uint256;\n\t// State mappings to keep track of admins and storeOwners\n\tmapping (address => bool) public admins;\n\tmapping (address => bool) public storeOwners;\n\n\t// State mappings\n\t// These are meant to link existing owners to their stores and products\n\tmapping (address => Store) public store;\n\tmapping (address => Product) public product;\n\t// Currently stores can only maintain 1 product tied to owners address\n\t// This could be changed in a future version of the market place\n\n  // uint variable utilized to identify type of user\n  // 1 for admins\n  // 2 for shop owners\n  // 3 for regular shoppers\n  mapping (address => uint) public userType;\n  // bool variable necessary to implement circuit breaker\n  bool public stopped = false;\n\n\tconstructor() public {\n\t\tadmins[msg.sender] = true;\n    identifyUser(msg.sender);\n\t}\n\n\tmodifier onlyAdmin { \n\t\trequire (admins[msg.sender] == true); \n\t\t_; \n\t}\n\n\tmodifier onlyOwner { \n\t\trequire (storeOwners[msg.sender] == true); \n\t\t_; \n\t}\n\n  // Circuit Breaker implementation was based from michielmulders/cricuit-breaker-solidity.sol GitHub page\n  modifier stopInEmergency { \n    if (!stopped) \n    _;\n  }\n  \n\n  modifier onlyInEmergency { \n    if(stopped)\n    _;\n  }\n  \n\n\t// Events used to log important events done by admins\n\tevent AdminAdded(address _address);\n\tevent StoreOwnerAdded(address _address);\n\n\t//Events used to log important events done by store storeOwners\n\tevent StoreAdded(address _address);\n\tevent ProductAdded(address _address);\n\tevent ProductRemoved(address _address);\n\tevent PriceChanged(address _address, uint _price);\n\tevent AmountWithdrawn(address _address, uint _amount);\n\n\t//Event used to log important events done by shoppers\n\tevent ProductPurchased(address _address, uint _price, uint _amount);\n  /** \n  These struct's are intended to be used by the storeOwners\n  so they can manage their stores and stock\n  */\n  struct Store {\n  \tstring name;\n  \tuint funds;\t\n  }\n\n  struct Product {\n  \tstring name;\n  \tuint price;\n  \tuint availability;\n  }\n\n  //////// Simple Functions ////////\n  /**\n  @dev To vefirify if address is admin\n  @param _address the addres to be verified as admin\n  @return result true or false\n  */\n  function isAdmin(address _address) public view returns (bool result) {\n    return admins[_address];\n  }\n\n  /** \n  @dev To verify if an address is a storeOwner\n  @param _address the address to be verified as store owner\n  @return result true or false\n  */\n  function isStoreOwner(address _address) public view returns (bool result) {\n    return storeOwners[_address];\n  }\n\n  /**\n  @dev To verify the type of user\n  @param _address to be identified\n  @return number corresponding to the userType\n   */\n  function identifyUser(address _address) public returns (uint) {\n    if(isAdmin(_address)) userType[_address] = 1;\n      else if(isStoreOwner(_address) || isAdmin(_address)) userType[_address] = 2;\n    else userType[_address] = 3;\n    return userType[_address];\n  }\n\n  /**\n  @dev To verify the type of user\n  @return number corresponding to the userType\n   */\n  function identifyUser() public returns (uint) {\n    if(isAdmin(msg.sender)) userType[msg.sender] = 1;\n      else if(isStoreOwner(msg.sender)) userType[msg.sender] = 2;\n    else userType[msg.sender] = 3;\n    return userType[msg.sender];\n  }\n\n  function getStopped() public view returns(bool result) {\n    return stopped;\n  }\n  \n  ///////////////////// ADMIN ONLY FUNCTIONS ////////\n\n  /** \n  @dev Admin adds another address as an admin\n  @param _address must be the address of user to be stated as admin\n  @return admin the address tied to the admin is true or false\n  */\n  function addAdmin(address _address) onlyAdmin public returns (bool admin) {\n  \tadmins[_address] = true;\n  \temit AdminAdded(_address);\n  \treturn admins[_address];\n  }\n  \n  /**\n  @dev Admin adds another store owner\n  @param _address must be the address of the user to be stated as store owner\n  @return bool the _address parameter is associated with a store\n  */\n  function addStoreOwner(address _address) onlyAdmin public returns (bool admin) {\n  \tstoreOwners[_address] = true;\n  \temit StoreOwnerAdded(_address);\n  \treturn storeOwners[_address];\n  }\n\n  // @dev Utilized to toggle whether contract should be stopped\n  // @return result tru or false depending on wheter the contract is active or not\n  function toggleContractActive() onlyAdmin public returns (bool result) {\n    stopped = !stopped;\n    return stopped;\n  }\n\n  /////////////// ONLY STORE OWNER FUNCTIONS /////////////\n\n  /**\n  @dev Store owner creates a store\n  @param _name name of the Store\n  @return name of the store\n  This function is a payable function\n  and msg.value will be used for funds to be \n  attributed to the store.\n  msg.sender will also be used to map the address of the function\n  caller to the store.\n  */\n  function addStore(string memory _name)\n  onlyOwner public payable returns (string memory name) {\n\n  \tstore[msg.sender] = Store(_name, msg.value);\n  \temit StoreAdded(msg.sender);\n  \treturn store[msg.sender].name;\n  }\n\n  /**\n  @dev Shop Owners can add a product to their store\n  @param _productName will be the name of the product\n  @param _price will be the price for the product\n  @param _availability will determine the amount of items in stock\n  @return name Name of the product\n  @return price The price of the product\n  @return availability The Amount of items in stock\n  */\n  function addProduct(string memory _productName, uint _price, uint _availability)\n  onlyOwner public returns (string memory name, uint price, uint availabilty) {\n  \tproduct[msg.sender] = Product(_productName, _price, _availability);\n  \temit ProductAdded(msg.sender);\n  \treturn (product[msg.sender].name, product[msg.sender].price, product[msg.sender].availability);\n  }\n\n  /**\n  @dev Shop Owners can delete an item from their store\n  */\n  function removeProduct()\n  onlyOwner public {\n  \tdelete product[msg.sender];\n  \temit ProductRemoved(msg.sender);\n  }\n\n  /**\n  @dev Shop Owners can change the price of a product\n  @param _newPrice is to be the price for the product associated with msg.sender\n  @return newPrice of the product tied to msg.sender\n  */\n  function changeProductPrice(uint _newPrice)\n  onlyOwner public returns (uint newPrice) {\n  \tproduct[msg.sender].price = _newPrice;\n  \temit PriceChanged(msg.sender, _newPrice);\n  \treturn product[msg.sender].price;\n  }\n\n  /**\n  @dev Shop Owners can withdraw an amount of ether owed to them\n  @param amount is the desired amount to be withdrawn\n  @return funds of the store tied to the address of the function caller\n  */\n  function withdraw(uint amount) onlyOwner onlyInEmergency public returns (uint funds) {\n  \t\n  \tstore[msg.sender].funds -= amount;\n  \tmsg.sender.transfer(store[msg.sender].funds);\n\n  \trequire (amount <= store[msg.sender].funds);\n  \temit AmountWithdrawn(msg.sender, amount);\n  \treturn store[msg.sender].funds;\n  }\n\n  ///////////////// SHOPPER FUNCTIONS ///////////////\n\n  /**\n  @dev Shoppers can choose an item to purchase\n  @param _ownerAddress is the address of the product owner\n  @param _amount is the amount of items to be purchased\n  @return caller the address who purchased the product\n  @return name of the product\n  @return amount of items purchased\n  Function is marked as payable\n  Funds are given to the store of the associated ethereum address.\n  msg.sender is debited ether using the transfer() function.\n  product availability is reduced by the amount of items purchased\n  */\n  function purchaseProduct(address _ownerAddress, uint _amount) public payable returns (address caller, string memory name, uint amount) {\n\n  \tstore[_ownerAddress].funds += product[_ownerAddress].price * _amount;\n  \tmsg.sender.transfer(product[_ownerAddress].price * _amount);\n  \tproduct[_ownerAddress].availability -= _amount;\n\n  \trequire(msg.value >= product[_ownerAddress].price * _amount);\n\n  \trequire (product[_ownerAddress].availability >= _amount);\n  \t\n  \temit ProductPurchased(_ownerAddress, product[_ownerAddress].price * _amount, _amount);\n\n  \treturn (msg.sender, product[_ownerAddress].name, _amount);\n  }  \n}\n",
  "sourcePath": "/home/osboxes/DeveloperProgram/Final/contracts/MarketPlace.sol",
  "compiler": {
    "name": "solc",
    "version": "0.5.0+commit.1d4f565a.Emscripten.clang"
  },
  "schemaVersion": "3.0.0",
  "updatedAt": "2019-01-25T23:39:57.040Z",
  "devdoc": {
    "methods": {
      "addAdmin(address)": {
        "details": "Admin adds another address as an admin",
        "params": {
          "_address": "must be the address of user to be stated as admin"
        },
        "return": "admin the address tied to the admin is true or false"
      },
      "addProduct(string,uint256,uint256)": {
        "details": "Shop Owners can add a product to their store",
        "params": {
          "_availability": "will determine the amount of items in stock",
          "_price": "will be the price for the product",
          "_productName": "will be the name of the product"
        },
        "return": "name Name of the productprice The price of the productavailability The Amount of items in stock"
      },
      "addStore(string)": {
        "details": "Store owner creates a store",
        "params": {
          "_name": "name of the Store"
        },
        "return": "name of the store This function is a payable function and msg.value will be used for funds to be  attributed to the store. msg.sender will also be used to map the address of the function caller to the store."
      },
      "addStoreOwner(address)": {
        "details": "Admin adds another store owner",
        "params": {
          "_address": "must be the address of the user to be stated as store owner"
        },
        "return": "bool the _address parameter is associated with a store"
      },
      "changeProductPrice(uint256)": {
        "details": "Shop Owners can change the price of a product",
        "params": {
          "_newPrice": "is to be the price for the product associated with msg.sender"
        },
        "return": "newPrice of the product tied to msg.sender"
      },
      "identifyUser()": {
        "details": "To verify the type of user",
        "return": "number corresponding to the userType"
      },
      "identifyUser(address)": {
        "details": "To verify the type of user",
        "params": {
          "_address": "to be identified"
        },
        "return": "number corresponding to the userType"
      },
      "isAdmin(address)": {
        "details": "To vefirify if address is admin",
        "params": {
          "_address": "the addres to be verified as admin"
        },
        "return": "result true or false"
      },
      "isStoreOwner(address)": {
        "details": "To verify if an address is a storeOwner",
        "params": {
          "_address": "the address to be verified as store owner"
        },
        "return": "result true or false"
      },
      "purchaseProduct(address,uint256)": {
        "details": "Shoppers can choose an item to purchase",
        "params": {
          "_amount": "is the amount of items to be purchased",
          "_ownerAddress": "is the address of the product owner"
        },
        "return": "caller the address who purchased the productname of the productamount of items purchased Function is marked as payable Funds are given to the store of the associated ethereum address. msg.sender is debited ether using the transfer() function. product availability is reduced by the amount of items purchased"
      },
      "removeProduct()": {
        "details": "Shop Owners can delete an item from their store"
      },
      "withdraw(uint256)": {
        "details": "Shop Owners can withdraw an amount of ether owed to them",
        "params": {
          "amount": "is the desired amount to be withdrawn"
        },
        "return": "funds of the store tied to the address of the function caller"
      }
    }
  },
  "userdoc": {
    "methods": {}
  }
}