{
  "contractName": "SafeMathLib",
  "abi": [
    {
      "constant": true,
      "inputs": [
        {
          "name": "a",
          "type": "uint256"
        },
        {
          "name": "b",
          "type": "uint256"
        }
      ],
      "name": "time",
      "outputs": [
        {
          "name": "result",
          "type": "uint256"
        }
      ],
      "payable": false,
      "stateMutability": "pure",
      "type": "function",
      "signature": "0xbd4facc2"
    },
    {
      "constant": true,
      "inputs": [
        {
          "name": "a",
          "type": "uint256"
        },
        {
          "name": "b",
          "type": "uint256"
        }
      ],
      "name": "minus",
      "outputs": [
        {
          "name": "result",
          "type": "uint256"
        }
      ],
      "payable": false,
      "stateMutability": "pure",
      "type": "function",
      "signature": "0xf4f3bdc1"
    },
    {
      "constant": true,
      "inputs": [
        {
          "name": "a",
          "type": "uint256"
        },
        {
          "name": "b",
          "type": "uint256"
        }
      ],
      "name": "plus",
      "outputs": [
        {
          "name": "result",
          "type": "uint256"
        }
      ],
      "payable": false,
      "stateMutability": "pure",
      "type": "function",
      "signature": "0x66098d4f"
    }
  ],
  "bytecode": "0x610208610030600b82828239805160001a6073146000811461002057610022565bfe5b5030600052607381538281f3fe730000000000000000000000000000000000000000301460806040526004361061006e576000357c0100000000000000000000000000000000000000000000000000000000900463ffffffff16806366098d4f14610073578063bd4facc2146100bf578063f4f3bdc11461010b575b600080fd5b6100a96004803603604081101561008957600080fd5b810190808035906020019092919080359060200190929190505050610157565b6040518082815260200191505060405180910390f35b6100f5600480360360408110156100d557600080fd5b810190808035906020019092919080359060200190929190505050610181565b6040518082815260200191505060405180910390f35b6101416004803603604081101561012157600080fd5b8101908080359060200190929190803590602001909291905050506101b4565b6040518082815260200191505060405180910390f35b60008082840190506101778482101580156101725750838210155b6101cd565b8091505092915050565b60008082840290506101aa60008514806101a557508385838115156101a257fe5b04145b6101cd565b8091505092915050565b60006101c2838311156101cd565b818303905092915050565b8015156101d957600080fd5b5056fea165627a7a72305820bffd71b5025d796b14c00d0c28dbeebbc60016694901a969291abe18ce811f200029",
  "source": "pragma solidity ^0.5.0;\n\nlibrary SafeMathLib {\n\tfunction time(uint a, uint b) public pure returns (uint result){\n\tuint c = a*b;\n\tassert(a == 0 || c / a == b);\n\treturn c;\n\t}\n\n\tfunction minus(uint a, uint b) public pure returns (uint result) {\n\tassert( b <= a );\n\treturn a-b;\n\t}\n\n\tfunction plus(uint a, uint b) public pure returns (uint result) {\n\n\tuint c = a + b;\n\tassert( c >= a && c >= b);\n\treturn c;\n\t}\n\n\tfunction assert(bool assertion) private pure {\n\tif(!assertion) revert();\n\t}\n}",
  "sourcePath": "/home/osboxes/DeveloperProgram/Final/contracts/SafeMathLib.sol",
  "compiler": {
    "name": "solc",
    "version": "0.5.0+commit.1d4f565a.Emscripten.clang"
  },
  "schemaVersion": "3.0.0",
  "updatedAt": "2019-01-26T14:42:13.312Z",
  "devdoc": {
    "methods": {}
  },
  "userdoc": {
    "methods": {}
  }
}